:020000040000FA
:100000000C9444010C9475010C9475010C947501C9
:100010000C9475010C9475010C9475010C94750188
:100020000C9475010C9475010C9475010C94750178
:100030000C9475010C9475010C9475010C94750168
:100040000C9475010C9475010C9475010C94750158
:100050000C9475010C9475010C9475010C94B40CFE
:100060000C9475010C94280D0C94FE0C0C947501E5
:100070000C9475010C9475010C9475010C94750128
:100080000C9475010C9475010C9475010C94750118
:100090000C9475010C9475010C9475010C94750108
:1000A0000C9475010C9475010C9475010C947501F8
:1000B0000C9475010C9475010C9475010C947501E8
:1000C0000C9475010C9475010C9475010C947501D8
:1000D0000C9475010C9475010C9475010C947501C8
:1000E0000C9475010C949B010C9432050C94DA016C
:1000F0000C94AA010C94D6010C9482160C94C7049B
:100100000C948E020C94CC010C94C8010C94B00198
:100110000C94B4010C94020C0C94EC020C94D001DD
:100120000C9471030C94E6150C9495010C94CA027E
:100130000C9424030C94A7010C94A3010C949F012C
:100140000C94BB020C94BA010C94BE010C94F512F1
:100150000C940B170C94C2010C94DE020C94D50184
:100160000C94810D00002100240027002A002D009E
:100170003000330001010000040107010A01000002
:100180002200250028002B002E003100340002013F
:100190000000050108010B010000200023002600DB
:1001A00029002C002F00320000010000030106018D
:1001B00009010505050507050808080802020202ED
:1001C0000A0A0808040404040101010101010101F3
:1001D0000303030303030303040707070C0C0C0CBE
:1001E0000C0C0C0C020202020606060606060606A7
:1001F0000B0B0B0B0B0B0B0B010210202008081034
:100200002040102040800201020108040201010286
:10021000040810204080804020100804020180045F
:1002200002018040201008040201080402010102BA
:1002300004081020408001020408102040800000C3
:100240000A0B02090C0D0E08070304010000000050
:10025000000000000000000000000000000000009E
:10026000000000000000000000001211100000005B
:10027000000000000000000000000000000000007E
:1002800000000000810DF51211241FBECFEFD1E256
:10029000DEBFCDBF00E00CBF24E0A4E7B2E001C0A8
:1002A0001D92A23CB207E1F712E0A0E0B2E0EAED55
:1002B000F5E300E00BBF02C007900D92A437B10731
:1002C000D9F711E0C3E4D1E000E006C021970109AD
:1002D000802FFE010E94BC15C234D10780E00807C0
:1002E000A9F70E94AE0E0C94DB1A0C94000081500A
:1002F000823108F05AC0E82FF0E08827ED57FE4F12
:100300008F4F0C94BC15A301A70195019B019F0180
:10031000D501AA01B001B401BA01BE01C201C801F0
:10032000CC01D501D001D601DA01809180008F7710
:10033000809380000895809180008F7DF9CF809117
:100340008000877FF5CF84B58F7784BD089584B50D
:100350008F7DFBCF8091B0008F778093B0000895A0
:100360008091B0008F7DF9CF809190008F7780933E
:1003700090000895809190008F7DF9CF809190003A
:10038000877FF5CF8091A0008F778093A00008959C
:100390008091A0008F7DF9CF8091A000877FF5CF5D
:1003A000809120018F778093200108958091200112
:1003B0008F7DF9CF80912001877FF5CFCF93DF9399
:1003C000282F30E0F901E25CFD4F8491F901E850FB
:1003D000FE4FD491F901EE54FE4FC491CC23A1F00D
:1003E00081110E947701EC2FF0E0EE0FFF1FE8561D
:1003F000FE4FA591B491EC91ED2381E090E009F4DA
:1004000080E0DF91CF91089580E090E0FACF1F93D4
:10041000CF93DF93282F30E0F901E25CFD4F849108
:10042000F901E850FE4FD491F901EE54FE4FC4910A
:10043000CC23A9F0162F81110E947701EC2FF0E058
:10044000EE0FFF1FE258FE4FA591B4918FB7F894BD
:10045000EC91111108C0D095DE23DC938FBFDF91A2
:10046000CF911F910895DE2BF8CFCF93DF9390E0CB
:10047000FC01E850FE4F24918E549E4FFC01849164
:100480008823C9F090E0880F991FFC01EC59FE4FBA
:10049000A591B491FC01E258FE4FC591D491611130
:1004A0000DC09FB7F8948C91209582238C938881FE
:1004B000282328839FBFDF91CF910895623051F4A4
:1004C0009FB7F8943C91822F809583238C93E88189
:1004D0002E2BEFCF8FB7F894EC912E2B2C938FBF50
:1004E000EACF863308F0865320917B00982F9870CE
:1004F000277F922B90937B008770806480937C0091
:1005000080917A00806480937A0080917A0086FDE1
:10051000FCCF80917800909179000895AF92BF92BE
:10052000CF92DF92EF92FF920F931F93CF93DF93BF
:100530006C017B018B01040F151FEB015E01AE18EE
:10054000BF08C017D10759F06991D601ED91FC9110
:100550000190F081E02DC6011995892B79F7C5012D
:10056000DF91CF911F910F91FF90EF90DF90CF908F
:10057000BF90AF900895FC01538D448D252F30E03E
:10058000842F90E0821B930B541710F0CF960895A0
:1005900001970895FC01918D828D981761F0A28DCD
:1005A000AE0FBF2FB11D5D968C91928D9F5F9F7393
:1005B000928F90E008958FEF9FEF0895FC01918D49
:1005C000828D981731F0828DE80FF11D858D90E0B6
:1005D00008958FEF9FEF0895FC01918D228D892F53
:1005E00090E0805C9F4F821B91098F73992708953B
:1005F00081E992E00E94EC0221E0892B09F420E0DD
:10060000822F0895FC01A48DA80FB92FB11DA35A04
:10061000BF4F2C91848D90E001968F739927848F22
:10062000A689B7892C93A089B1898C918370806445
:100630008C93938D848D981306C00288F389E02DE6
:1006400080818F7D80830895EF92FF920F931F9397
:10065000CF93DF93EC0181E0888F9B8D8C8D981375
:100660001AC0E889F989808185FF15C09FB7F89481
:10067000EE89FF896083E889F989808183708064CD
:1006800080839FBF81E090E0DF91CF911F910F9118
:10069000FF90EF900895F62E0B8D10E00F5F1F4F27
:1006A0000F731127E02E8C8D8E110CC00FB607FC36
:1006B000FACFE889F989808185FFF5CFCE010E94C4
:1006C0000203F1CFEB8DEC0FFD2FF11DE35AFF4F2D
:1006D000F0829FB7F8940B8FEA89FB898081806252
:1006E000CFCFCF93DF93EC01888D8823B9F0AA890F
:1006F000BB89E889F9898C9185FD03C0808186FDDD
:100700000DC00FB607FCF7CF8C9185FFF2CF80812B
:1007100085FFEDCFCE010E940203E9CFDF91CF919B
:10072000089580E090E0892B29F00E94F802811161
:100730000E94000080E090E0892B49F080E090E08A
:10074000892B29F00E94000081110E94000080E0A6
:1007500090E0892B49F080E090E0892B29F00E94FD
:10076000000081110E94000080E090E0892B49F098
:1007700080E090E0892B29F00E94000081110C9408
:1007800000000895AF92BF92CF92DF92EF92FF9256
:100790001F93CF93DF937C0110E0C7E0D0E083E2AA
:1007A000C82ED12CAA24A394B12C60E0F70180813B
:1007B0000E940702C6010197F1F7F70181810E94AB
:1007C000DE01892B39F0C5010C2E01C0880F0A9477
:1007D000EAF7182B61E0F70180810E940702C60149
:1007E0000197F1F7219708F7812FDF91CF911F91A2
:1007F000FF90EF90DF90CF90BF90AF9008950F9350
:100800001F93CF93DF938C0160E0FC0182810E94F3
:10081000070283E290E00197F1F7C8010E94C2034A
:10082000C82FD0E0DC2FCC27C8010E94C203C82B00
:1008300061E0F80182810E94070260E070E080ECD4
:100840009FE7C2FD10C083E0D695C7958A95E1F772
:10085000BE0190E080E00E94541320E030E040E8C8
:100860005EE30E94B513DF91CF911F910F91089520
:100870000F931F93CF93DF93EC01209729F4DF911F
:10088000CF911F910F910895088119818E819F81C9
:1008900090FD06C08C819D81009711F00E94380464
:1008A0008E819F8190FD09C088859985009729F0E8
:1008B000E0910202F091030219958E819F8191FDD2
:1008C00009C088899989009729F0E0910202F09186
:1008D00003021995E0910202F0910302CE011995ED
:1008E000E801CBCFCF93DF93FB01DA01009709F446
:1008F00049C0109709F446C0309709F443C0461721
:10090000570759F1C081D1811196DC93CE93228192
:10091000338113963C932E931297209711F05B83AB
:100920004A83EC012C813D81E217F307C9F422814F
:100930003381E217F30739F40A2E1B2E13961C920B
:100940000E9211241297EC01BD83AC8311821082A8
:1009500013821282CF010E94380481E090E014C01B
:1009600012968D919C911397009719F0EC01B98321
:10097000A8838D919C911197892B41F7E901BB8345
:10098000AA83E4CF90E080E0DF91CF910895FC014D
:1009900086E392E09183808382819381009731F096
:1009A00024813581232B11F40C9438040895089583
:1009B000CF92DF92EF92FF92CF93DF93EC018A8187
:1009C0000E947102998388832C813D81BC01621B46
:1009D000730B072E000C880B990B0E9456136B01AA
:1009E0007C016E817F81072E000C880B990B0E9481
:1009F00056139B01AC01C701B6010E94F0146B01B4
:100A00007C0168857985072E000C880B990B0E9464
:100A100056139B01AC01C701B6010E94B5136B01CF
:100A20007C016A857B85072E000C880B990B0E9440
:100A300056139B01AC01C701B6010E9484146C8758
:100A40007D878E879F87DF91CF91FF90EF90DF901A
:100A5000CF900895FC0180819181009711F00C9452
:100A600082160895CF93DF93EC010E94C704CE0154
:100A7000DF91CF910C9482160C9482160F931F93E2
:100A8000CF93DF93EC0188819981009759F02A81F7
:100A90003B812617370730F081E0DF91CF911F911E
:100AA0000F9108958B016F5F7F4F0E940B17009786
:100AB00059F0998388831B830A832C813D81232BE2
:100AC00059F7FC011082E8CF80E0E7CFCF93DF93A6
:100AD000EC01892B99F0A881B981109779F08C816C
:100AE0009D81A80FB91FFD0101900020E9F7319702
:100AF000EA1BFB0BE80FF91FFD83EC83DF91CF911D
:100B00000895EF92FF920F931F93CF93DF9310E01E
:100B100000E00097A9F0EC01FC0101900020E9F74A
:100B20007F01E81AF90AE0910002F0910102C70181
:100B300019958C01009721F0A701BE010E94EC17C6
:100B4000C801DF91CF911F910F91FF90EF90089511
:100B5000EF92FF920F931F93CF93DF93EC01892BBA
:100B600089F10881198101151105B1F08A819B81F4
:100B7000009729F02C813D812817390718F577FD5A
:100B800021C02C813D816F5F7F4F620F731F8617DD
:100B9000970750F0020F131FC801DF91CF911F91EB
:100BA0000F91FF90EF90089588859985892B51F4D6
:100BB000611580E4780748F0EE24EA948FE7F82E78
:100BC00077FF06C010E000E0E7CF7B01EE0CFF1CD2
:100BD000E889F989309781F0B701C80119958C012E
:100BE000892B21F5EE85FF858881998119951B82D6
:100BF0001A8219821882D0CFEC85FD85C70119951C
:100C00008C01888199810115110519F4EE85FF8504
:100C1000EDCF4C815D814F5F5F4FBC01C8010E94E9
:100C2000EC17EE85FF85888199811995FB82EA8210
:100C3000198308838C819D81080F191FADCF0F93F5
:100C40001F93CF93DF930097E9F061157105D1F001
:100C50008B01FC01C481D581209751F06889798985
:100C60006115710579F0C8010E94F517892B31F4DF
:100C7000CE01DF91CF911F910F9108950990D881F6
:100C8000C02DEACFD0E0C0E0F3CFEF92FF920F93F8
:100C90001F93CF93DF93FC01AB0162817381538378
:100CA00042836115710509F43FC004811581011566
:100CB000110509F440C0F801868197819927803495
:100CC000910581F54115510579F1FB01E088F18825
:100CD000E114F10449F1EA018E819F8191FD09C07F
:100CE00088899989009729F0E0910202F091030226
:100CF0001995C7010E948105998B888B8E819F81F0
:100D00009D7F9F838E83B701C8010E941F06AE019D
:100D1000BC01C801DF91CF911F910F91FF90EF901F
:100D20000C9472048097A9F3DF91CF911F910F91DA
:100D3000FF90EF900895CB01DF91CF911F910F911C
:100D4000FF90EF900C943804EF92FF920F931F9353
:100D5000CF93DF93EC01FB01E080F180E114F1041B
:100D600011F10481158101151105A9F08C819D8176
:100D7000080F191FB801CE010E943E05882399F083
:100D8000288139818C819D81B701820F931F0E9438
:100D9000FE171D830C83CE01DF91CF911F910F9120
:100DA000FF90EF90089588819981009711F00E943B
:100DB0008216198218821D821C821B821A82EBCF36
:100DC000EF92FF920F931F93CF93DF93EC017B0180
:100DD0008A01BA010E943E0528813981811114C01F
:100DE0002115310519F0C9010E9482161982188255
:100DF0001D821C821B821A82CE01DF91CF911F912E
:100E00000F91FF90EF9008951D830C83B701C901E6
:100E10000E94FE17F1CFEF92FF920F931F93CF9393
:100E2000DF93CDB7DEB762970FB6F894DEBF0FBE83
:100E3000CDBF8C01CB01F801118210821382128286
:100E4000158214824AE09E012F5F3F4F7901B9015C
:100E50000E94F912F70101900020E9F73197AF01E4
:100E60004E195F09B701C8010E94E00662960FB6ED
:100E7000F894DEBF0FBECDBFDF91CF911F910F91D0
:100E8000FF90EF900895FC0182E190E019950097A2
:100E900029F022E1FC0111922A95E9F708958F9239
:100EA0009F92AF92BF92CF92DF92EF92FF920F93F9
:100EB0001F93CF93DF937C016B015A01DB011296E4
:100EC000ED91FC91309719F08681803489F0809102
:100ED0000002909101020E944307009729F020E44C
:100EE00030E0FC0137832683BC01C6010E94450621
:100EF000D60112960D911C91B501C8010E941F06E2
:100F0000EC01892B09F046C080910002909101020A
:100F10000E944307EC01892B21F084E090E09F833D
:100F20008E830115110509F460C0A114B10409F400
:100F30005CC0209709F459C00C171D0709F455C06F
:100F4000C5010E9481055C01892B09F44EC08E8188
:100F50009F814C01E89491F891FD09C08889998995
:100F6000009729F0E0910202F09103021995B98AE5
:100F7000A88A9F828E82D8011496ED91FC911597D4
:100F8000309739F51596DC93CE931497DB83CA839B
:100F900019821882F6018281938126E332E0D7011B
:100FA00011963C932E931396DC93CE93129715963D
:100FB0009C938E931497C701DF91CF911F910F914E
:100FC000FF90EF90DF90CF90BF90AF909F908F9069
:100FD0000895A281B3811097E9F21196DC93CE9324
:100FE000BB83AA83D383C283D5CFCE010E943804AA
:100FF000D0E0C0E0CFCFCF92DF92EF92FF920F937D
:101000001F93CF93DF938C016A017B0180910002D3
:10101000909101020E944307EC01892BB1F088E016
:1010200090E09F838E83CC86DD86EE86FF8620E06F
:101030003EEF4FEF56E4C701B6010E94981587FDB9
:1010400010C08FEF9FE79B878A87BE01C801DF91A1
:10105000CF911F910F91FF90EF90DF90CF900C9464
:10106000450620E030E040E057ECC701B6010E94A1
:101070004F1318161CF080E090E8E5CFC701B601C9
:101080000E9462157B876A87E0CF4F925F926F92D2
:101090007F928F929F92AF92BF92CF92DF92EF9208
:1010A000FF920F931F93CF93DF936115710599F40E
:1010B00090E080E0DF91CF911F910F91FF90EF9032
:1010C000DF90CF90BF90AF909F908F907F906F9068
:1010D0005F904F9008959B017C01009709F4A4C094
:1010E0005C018C01912C812CF801919191112CC003
:1010F0000E191F09080D191DB8016D5F7F4FC90139
:101100000E94A8050097A1F2EC0121966801EFEF7B
:10111000CE1ADE0AC80ED91E3801F2E06F0E711C1D
:10112000680E791E892839F562E2B62EFC01B0827C
:10113000A801B701CE010E94EC17F601B082F301BD
:10114000108281E090E0B6CF9E3058F49C3020F4BD
:1011500088EF890F833048F48FEF881A980A8F013F
:10116000C3CF9232C9F39C35B9F39032C0F785E012
:10117000880E911CF4CF22E2FC0120838CE5F82E2E
:1011800096E6E92E0CE312E022E7922E34E7832E56
:101190004EE6542E52E6452EF50181915F018111F4
:1011A00004C082E2F6018083CACF803248F08232E6
:1011B00039F08C3529F088839E01E9012196ECCF26
:1011C0009E012F5F3F4FF882F501319780818C306F
:1011D00099F040F48930A1F08A3081F0883091F4A0
:1011E0004982EBCF823231F08C3521F08D3051F4D1
:1011F0009982E3CF8983E1CFE982DFCF5982DDCFC6
:101200008982DBCF1F928F931F930F933F932F936E
:101210000E9405189E012B5F3F4F0F900F900F907B
:101220000F900F900F90C9CF63E070E0C9010E944A
:10123000A805009709F43CCF62E472E00E94FE1713
:1012400080CF2F923F924F925F926F927F928F92B8
:101250009F92AF92BF92CF92DF92EF92FF920F9345
:101260001F93CF93DF93CDB7DEB76A970FB6F8948D
:10127000DEBF0FBECDBF7C018B01DC0116968D91C8
:101280009C91179799278830910509F458C09CF4D0
:101290008230910509F449C084309105C1F101976C
:1012A00091F466E070E0C8010E94A8056AE472E06B
:1012B0000097B1F508C08032910509F41AC134F4E1
:1012C000409709F4F8C090E080E0FAC080349105BE
:1012D00009F48FC180389105B1F7F701A085B18578
:1012E000109789F3FD0101900020E9F76F01CA1AF8
:1012F000DB0AB601C8010E94A805009721F3D701B7
:1013000018966D917C91A6010E94EC170BC065E0C8
:1013100070E0C8010E94A80565E472E0009799F2A8
:101320000E94FE1781E090E0CBC065E070E0C8014C
:101330000E94A805009739F260E572E0F1CFF7014D
:1013400084849584A684B7843AE1D32ECE01019695
:101350007C01DC01ED2D1D92EA95E9F7672B09F47C
:10136000B2CFA5019401C501B4010E944F138111B0
:101370000CC0A5019401C501B4010E9483149B0116
:10138000AC010E944F13882351F165E472E0C7015C
:101390000E94FE1724E0222E312CB1016F5F7F4F97
:1013A000C8010E94A805FC01D701009709F48BCF62
:1013B0009D012E193F092215330508F478C0820DCE
:1013C000931DFC011082D80114968D919C91159764
:1013D000280E391E15963C922E921497A3CFD70152
:1013E0001D92DA94E9F7C501B4010E9462152B0140
:1013F0003C012AE0A7010E940413F701019000209C
:10140000E9F731976F01CE18DF081601C301B20169
:101410000E9456139B01AC01C501B4010E948314C4
:1014200028E23BE64EE65EE40E94B5130E94621598
:1014300097FF07C090958095709561957F4F8F4F6E
:101440009F4F4B015C019AE0492E512C612C712C6D
:1014500081149104A104B10409F1C501B401A301EF
:1014600092010E949D15672B682B692BE9F0F7010B
:10147000EC0DFD1D8EE28083A6014F5F5F4F4E0D88
:101480005F1D2AE0C501B4010E940413F701019019
:101490000020E9F731971F012E183F08BAE12B16FB
:1014A00031040CF010CF79CF49015A01D1CF2D91E1
:1014B000208331967DCFF701808591850E94450874
:1014C0006A960FB6F894DEBF0FBECDBFDF91CF9105
:1014D0001F910F91FF90EF90DF90CF90BF90AF9052
:1014E0009F908F907F906F905F904F903F902F9044
:1014F0000895672B09F4E7CE1496ED90FC9061E017
:1015000070E0C8010E94A805009709F4DCCE2BE525
:10151000FC012083D80114968D919C91159701961A
:1015200015969C938E93149716968D919C91179770
:10153000019617969C938E931697BCE2BB2E80E281
:10154000A82EE114F104B9F462E070E0C8010E9431
:10155000A8052DE5009709F4B6CEFC012083118281
:10156000D80116968D919C911797019717969C9389
:101570008E931697D7CEB801C7010E942109892BF7
:1015800009F4A1CEC8010E946605F701808191810E
:10159000892B59F1D8011A968D919C91A2E0CA2EFF
:1015A000D12C892B19F4CC24C394D12CB6016F5FB4
:1015B0007F4FC8010E94A805009709F484CEFC0162
:1015C000B082D8011A962D913C913196232B29F0A7
:1015D000FC013296DC011196AC921082F8018481F4
:1015E00095818C0D9D1D95838483D701ED90FC9092
:1015F000A8CF6115710509F466CEFB01828593853C
:10160000E2E0CE2ED12C892B19F4CC24C394D12C1A
:10161000D7011496ED90FC90B6016F5F7F4FC80123
:101620000E94A805009709F44ECE2BE7FC01208309
:10163000D80116962D913C9117972F5F3F4F179623
:101640003C932E9316971A962D913C91232B11F0D3
:101650002AE02183F801848195818C0D9D1D95835D
:10166000848339E0B32E4AE3A42E5CE2952E6AE02F
:10167000862EF80182859385E114F10441F562E03C
:1016800070E0892B21F0668177816F5F7F4FC80101
:101690000E94A805009709F416CED8011A962D913C
:1016A0003C91232B91F0BC01FC0189E0F82ECF0185
:1016B000D80116962D913C9121503109AF01461B5E
:1016C000570B4217530708F49BC02DE746CF892BD1
:1016D00009F1D80116966D917C91C8010E94A80568
:1016E000009709F4F0CDFC01D80116962D913C919C
:1016F0001797AF01481B590B4217530708F47EC0D8
:1017000014968D919C911597820F931F15969C931B
:101710008E931497B801F701808991890E9445083A
:10172000892B09F4D0CDC8010E946605D8011A960C
:101730008D919C9122E0C22ED12C892B19F4CC24BE
:10174000C394D12CB601C8010E94A805009709F4E2
:10175000BACDFC01A082D8011A962D913C91232B81
:1017600009F0B182F801648175816C0D7D1D75836E
:101770006483B801C7010E942109892B09F4A3CD14
:10178000C8010E94660521E030E0D8011A968D91CB
:101790009C91892B11F430E020E081E090E0F7018A
:1017A00040815181452B11F490E080E06901C80E21
:1017B000D91EB6016F5F7F4FC8010E94A805FC01CA
:1017C000892B09F480CDD7018D919C91892B11F043
:1017D00090823196D8011A968D919C91892B11F0A7
:1017E000808231961082F80184819581C80ED91EBD
:1017F000D582C482D701ED90FC903BCFB19274CFDB
:10180000F19255CFCF92DF92EF92FF920F931F93F9
:10181000CF93DF93CDB7DEB762970FB6F894DEBFF4
:101820000FBECDBFDC011296CD90DC90F12CE12CE7
:10183000C114D10409F451C07B018E010F5F1F4F09
:1018400082E1F80111928A95E9F7E0910002F091A6
:10185000010280E091E019959A83898320E031E0CC
:101860003C832B831C861B8626E0E0E0F2E0DE0151
:101870001D9601900D922A95E1F7892BD9F0B801B8
:10188000C6010E942109892BA9F0C8010E946605A2
:10189000E0910402F09105028D819E81309769F1FB
:1018A000BC016F5F7F4F89819A8119958C01892BCB
:1018B00009F047C089819A81E0910202F091030208
:1018C000009709F0199510E000E0F12CE12CE0916F
:1018D0000202F0910302C8011995C70162960FB682
:1018E000F894DEBF0FBECDBFDF91CF911F910F9156
:1018F000FF90EF90DF90CF900895E0910002F0917B
:101900000102019619958C01892BA1F24D815E810E
:101910008B819C814F5F5F4F8417950708F4AC0162
:1019200069817A81C8010E94EC17ED81FE81E00F88
:10193000F11F1082E0910202F091030289819A81E5
:101940001995F80101900020E9F73197AF01401B8C
:10195000510BD701ED91FC910280F381E02DB8018C
:10196000C70119957C01B3CF1F920F920FB60F924A
:1019700011242F933F938F939F93AF93BF938091A5
:101980008D0290918E02A0918F02B09190023091C1
:101990008C0223E0230F2D3758F50196A11DB11DB0
:1019A00020938C0280938D0290938E02A0938F02DD
:1019B000B09390028091880290918902A0918A024E
:1019C000B0918B020196A11DB11D80938802909366
:1019D0008902A0938A02B0938B02BF91AF919F912D
:1019E0008F913F912F910F900FBE0F901F901895E0
:1019F00026E8230F0296A11DB11DD2CF1F920F9290
:101A00000FB60F9211240BB60F922F933F934F9363
:101A10005F936F937F938F939F93AF93BF93EF9356
:101A2000FF9381E992E00E940203FF91EF91BF9141
:101A3000AF919F918F917F916F915F914F913F9166
:101A40002F910F900BBE0F900FBE0F901F90189507
:101A50001F920F920FB60F9211240BB60F922F9375
:101A60008F939F93EF93FF93E091A102F091A202D5
:101A70008081E091A702F091A80282FD1DC09081B3
:101A80008091AA028F5F8F732091AB02821741F081
:101A9000E091AA02F0E0EF56FD4F958F8093AA02E5
:101AA000FF91EF919F918F912F910F900BBE0F900F
:101AB0000FBE0F901F9018958081F2CFCF93DF93C8
:101AC000EC01862F688379831A821B821C821D8217
:101AD0001E821F82188619861B861A8662E00E9463
:101AE000350288810E94DE019D878C879F878E87C3
:101AF000998B888B1A8A1B8A1C8A1D8ADF91CF9149
:101B00000895CF93DF93E1E9F2E01382128288EE29
:101B100093E0A0E0B0E084839583A683B78384E25A
:101B200092E09183808385EC90E09587848784ECB4
:101B300090E09787868780EC90E0918B808B81EC9A
:101B400090E0938B828B82EC90E0958B848B86EC7B
:101B500090E0978B868B118E128E138E148EEEE290
:101B6000F3E086E392E091838083138212821582F0
:101B70001482CBEBD4E08AE0888389E08A8388E012
:101B8000898361E089E00E94350261E088810E94DA
:101B9000350260E089810E94350261E08A810E94FD
:101BA0000702C8EBD4E08DE088838CE08A838BE069
:101BB000898361E08CE00E94350261E088810E94A7
:101BC000350260E089810E94350261E08A810E94CD
:101BD000070268E270E084E893E00E945E0D69E22B
:101BE00070E08AE993E00E945E0D6AE270E080EBAB
:101BF00093E00E945E0D6BE270E086EC93E00E9441
:101C00005E0D6CE270E08CED93E00E945E0D6DE283
:101C100070E082EF93E00E945E0D6EE270E088E07B
:101C200094E00E945E0D6FE270E08EE194E00E940D
:101C30005E0D60E370E084E394E00E945E0D61E37A
:101C400070E08AE494E00E945E0D62E370E080E65A
:101C500094E00E945E0D63E370E086E794E00E94EA
:101C60005E0D64E370E08CE894E00E945E0D65E335
:101C700070E082EA94E00E945E0DE4E7F3E01182F6
:101C80001082148615861686178681E490E0938369
:101C9000828369E571E07583648340E550E0578392
:101CA00046832EE130E0318720878BE190E09387F7
:101CB0008287E4E6F3E01182108214861586168688
:101CC0001786A0E4B0E0B383A2837583648357834F
:101CD00046833187208793878287E4E5F3E011828A
:101CE00010821486158616861786AFE3B0E0B3839C
:101CF000A2837583648357834683318720879387C4
:101D00008287E4E4F3E01182108214861586168639
:101D100017866EE370E07383628362E573E0758318
:101D20006483578346833187208793878287E4E3E0
:101D3000F3E0118210821486158616861786ADE3AD
:101D4000B0E0B383A283758364835783468331876E
:101D5000208793878287DF91CF910895CF93DF9378
:101D6000CDB7DEB7A0970FB6F894DEBF0FBECDBFDC
:101D7000789484B5826084BD84B5816084BD85B566
:101D8000826085BD85B5816085BD80916E00816072
:101D900080936E0010928100809181008260809318
:101DA000810080918100816080938100809180001A
:101DB0008160809380008091B10084608093B10045
:101DC0008091B00081608093B0008091910082602A
:101DD0008093910080919100816080939100809127
:101DE00090008160809390008091A1008260809338
:101DF000A1008091A10081608093A1008091A0004A
:101E000081608093A00080912101826080932101F4
:101E10008091210181608093210180912001816066
:101E20008093200180917A00846080937A00809171
:101E30007A00826080937A0080917A00816080933A
:101E40007A0080917A00806880937A001092C100B5
:101E5000E091A102F091A20282E08083E0919D02D4
:101E6000F0919E021082E0919F02F091A00280E129
:101E700080831092A902E091A502F091A60286E06B
:101E80008083E091A302F091A4028081806180832D
:101E9000E091A302F091A402808188608083E091A8
:101EA000A302F091A402808180688083E091A30264
:101EB000F091A40280818F7D808388EB94E004E818
:101EC00013E04EE150E060E070E0F801428353839C
:101ED000648375830A5E1F4F80179107B1F77CE01A
:101EE000E72E72E0F72EF7018081F2E0EF0EF11C91
:101EF00061E00E94350288E1E81682E0F80699F771
:101F000060E085E40E94350260E084E40E943502CE
:101F100060E083E40E94350260E082E40E943502C2
:101F20004424439455245394E2E06E2E712C64E8CB
:101F3000E62E63E0F62EF70180810E94DE012FB7C6
:101F4000F89440918D0250918E0260918F027091B1
:101F500090022FBFF701208931898217930731F052
:101F6000428B538B648B758B918B808BF7018288AE
:101F70009388A488B588481959096A097B09828021
:101F80009380A480B580481559056A057B0530F01B
:101F9000268537853587248797878687F7012485A7
:101FA0003585868597852817390711F14285538530
:101FB0004230510561F486819781A085B1850196F3
:101FC000A11DB11D86839783A087B18711C04115DC
:101FD000510539F42130310559F4892B49F4F701C1
:101FE000EACF4130510521F4232B11F40197B9F3C5
:101FF000F6E1EF0EF11C0E151F0509F09CCF54E71A
:10200000252E52E0352EB101A4E8B3E090E080E047
:102010001C962D913C911D97232B91F41E962D918A
:102020003C911F972130310559F4FB014081442533
:102030004083863028F49C012E573D4FF9014083A0
:10204000019656966F5F7F4F8E30910509F782E8B3
:1020500092E098A38F8F4CE0C42E42E0D42E7C01F6
:10206000F70161917F01F6018081F2E0CF0ED11C72
:102070000E94070288E892E08E159F0589F781E9A2
:1020800092E00E94EC021816190694F481E992E09D
:102090000E94CA02813379F45092820250928302E4
:1020A000509284025092850250928602509287028A
:1020B0000E9491033CCF823369F410928202109205
:1020C000830210928402109285021092860210926E
:1020D0008702EECF833309F07FC2E6E3F2E0FA8FA6
:1020E000E98F1C8E1B8E1E8E1D8E84E793E00E944E
:1020F000D80484E693E00E94D80484E593E00E942B
:10210000D80484E493E00E94D80484E393E00E941E
:10211000D804C0908003D0908103E0908203F090B7
:10212000830345E552E0BE01675E7F4FCE0107960F
:102130000E944F0747E552E0BE01695F7F4FCE0125
:1021400001960E944F07B701A601CE0101960E9499
:10215000FB07CE0101960E94C704CE0107960E949C
:10216000C704C0907003D0907103E0907203F090A8
:10217000730345E552E0BE01675E7F4FCE010796CF
:102180000E944F074AE552E0BE01695F7F4FCE01D2
:1021900001960E944F07B701A601CE0101960E9449
:1021A000FB07CE0101960E94C704CE0107960E944C
:1021B000C704C0906003D0906103E0906203F09088
:1021C000630345E552E0BE01675E7F4FCE0107968F
:1021D0000E944F074DE552E0BE01695F7F4FCE017F
:1021E00001960E944F07B701A601CE0101960E94F9
:1021F000FB07CE0101960E94C704CE0107960E94FC
:10220000C704C0905003D0905103E0905203F09067
:10221000530345E552E0BE01675E7F4FCE0107964E
:102220000E944F0740E652E0BE01695F7F4FCE013A
:1022300001960E944F07B701A601CE0101960E94A8
:10224000FB07CE0101960E94C704CE0107960E94AB
:10225000C704C0904003D0904103E0904203F09047
:10226000430345E552E0BE01675E7F4FCE0107960E
:102270000E944F0743E652E0BE01695F7F4FCE01E7
:1022800001960E944F07B701A601CE0101960E9458
:10229000FB07CE0101960E94C704CE0107960E945B
:1022A000C7048BEB94E00E94FF036B017C0145E5C2
:1022B00052E0BE01675E7F4FCE0107960E944F0736
:1022C00046E652E0BE01695F7F4FCE0101960E9453
:1022D0004F07B701A601CE0101960E94FB07CE0170
:1022E00001960E94C704CE0107960E94C70488EB9E
:1022F00094E00E94FF036B017C0145E552E0BE01C2
:10230000675E7F4FCE0107960E944F0749E652E075
:10231000BE01695F7F4FCE0101960E944F07B70152
:10232000A601CE0101960E94FB07CE0101960E94F4
:10233000C704CE0107960E94C70428E1A22E22E01E
:10234000B22EEE24E394F12CF5018081F2E0AF0E81
:10235000B11C0E9471026C01B701CE0107960E9468
:102360000B071E861D86188A1F861A8A198A41E065
:1023700050E06CE672E0CE010D960E94E006BE01D0
:10238000695F7F4FCE010D960E94A4064C014CE67A
:1023900052E0BE01675E7F4FCE0143960E944F0719
:1023A000F40140815181BE016D5E7F4FCE010196E7
:1023B0000E944F07B601DD0C880B990B0E94561343
:1023C00020E030E048E452E40E94F014AB01BC018C
:1023D000CE0101960E94FB07CE0101960E94C70420
:1023E000CE0143960E94C704CE010D960E942A0595
:1023F000CE0107960E942A05FFEFEF1AFF0A85E03B
:10240000E816F10409F0A0CFEE24E394F12CF101D9
:10241000B1901F01B701CE0107960E940B071E86DF
:102420001D86188A1F861A8A198A41E050E06EE6D6
:1024300072E0CE010D960E94E006BE01695F7F4FFB
:10244000CE010D960E94A4066C014EE652E0BE013C
:10245000675E7F4FCE0143960E944F07F601408191
:102460005181BE016D5E7F4FCE0101960E944F07E4
:102470008091000290910102BB2009F498C00E9453
:102480004307009719F0FC0177826682BC01CE01F8
:1024900001960E944506CE0101960E94C704CE0116
:1024A00043960E94C704CE010D960E942A05CE01D4
:1024B00007960E942A05FFEFEF1AFF0A8FE0E81641
:1024C000F10409F0A4CFEE24E394F12CEF8DF8A1F0
:1024D000B190F8A3EF8FB701CE0107960E940B07CA
:1024E0001E861D86188A1F861A8A198A41E050E0C6
:1024F00068E472E0CE010D960E94E006BE01695FBD
:102500007F4FCE010D960E94A4066C0148E452E074
:10251000BE01675E7F4FCE0143960E944F07F601D2
:1025200040815181BE016D5E7F4FCE0101960E94B8
:102530004F078091000290910102BB2009F442C034
:102540000E944307009719F0FC0177826682BC0164
:10255000CE0101960E944506CE0101960E94C70455
:10256000CE0143960E94C704CE010D960E942A0513
:10257000CE0107960E942A05FFEFEF1AFF0A87E0B7
:10258000E816F10409F0A2CF61E972E0CE014996A4
:102590000E94020C42E050E060E772E081E992E0C4
:1025A0000E948E02CE0149960E94C70481CD0E94EE
:1025B0004307009709F46ACF21E030E0FC0137833C
:1025C000268364CF0E944307009709F221E030E0A0
:1025D000FC0137832683BBCF843309F069CD80911A
:1025E000830284258093830263CD8EE293E00C9472
:1025F000C704BB274A3031F4992322F4BDE29095F9
:1026000081959F4F0C943613BB272A3051F49923A0
:1026100042F4BDE290958095709561957F4F8F4F04
:102620009F4F0C941413BB27FA01A62F6217710554
:1026300081059105330B30FB66F0AA27660F771FE3
:10264000881F991FAA1FA21710F0A21B639538506C
:10265000A9F7A05DAA3308F0A95DA19336F7B111DF
:10266000B1931082CA010C942214BB27FB01552799
:10267000AA27880F991FAA1FA41710F0A41B8395DF
:102680005051B9F7A05DAA3308F0A95DA193009756
:1026900079F7B111B1931192CB010C9422140E94DD
:1026A000911308F481E00895E89409C097FB3EF483
:1026B00090958095709561957F4F8F4F9F4F99238F
:1026C000A9F0F92F96E9BB279395F695879577950D
:1026D0006795B795F111F8CFFAF4BB0F11F460FFCD
:1026E0001BC06F5F7F4F8F4F9F4F16C0882311F025
:1026F00096E911C0772321F09EE8872F762F05C039
:10270000662371F096E8862F70E060E02AF09A95D3
:10271000660F771F881FDAF7880F9695879597F9C8
:102720000895990F0008550FAA0BE0E8FEEF161662
:102730001706E807F907C0F012161306E407F507B5
:1027400098F0621B730B840B950B39F40A2661F029
:10275000232B242B252B21F408950A2609F4A140CC
:10276000A6958FEF811D811D08950E94C8130C94BA
:1027700049140E943B1438F00E94421420F0952323
:1027800011F00C9432140C94381411240C947D1410
:102790000E945A1470F3959FC1F3950F50E0551F96
:1027A000629FF001729FBB27F00DB11D639FAA27A6
:1027B000F00DB11DAA1F649F6627B00DA11D661FF5
:1027C000829F2227B00DA11D621F739FB00DA11D16
:1027D000621F839FA00D611D221F749F3327A00DD0
:1027E000611D231F849F600D211D822F762F6A2F6C
:1027F00011249F5750409AF0F1F088234AF0EE0FD1
:10280000FF1FBB1F661F771F881F91505040A9F7FD
:102810009E3F510580F00C9432140C947D145F3F60
:10282000E4F3983ED4F3869577956795B795F79539
:10283000E7959F5FC1F7FE2B880F911D96958795B1
:1028400097F90895DC01FC01672F71917723E1F777
:10285000329704C07C916D9370836291AE17BF076D
:10286000C8F3089597F99F6780E870E060E00895E5
:102870009FEF80EC089500240A9416161706180698
:102880000906089500240A94121613061406050674
:102890000895092E0394000C11F4882352F0BB0F05
:1028A00040F4BF2B11F460FF04C06F5F7F4F8F4F68
:1028B0009F4F089557FD9058440F551F59F05F3FA3
:1028C00071F04795880F97FB991F61F09F3F79F052
:1028D00087950895121613061406551FF2CF4695D4
:1028E000F1DF08C0161617061806991FF1CF869556
:1028F0007105610508940895E894BB27662777273A
:10290000CB0197F908955058BB27AA270E949B1422
:102910000C9449140E943B1438F00E94421420F099
:1029200039F49F3F19F426F40C9438140EF4E09512
:10293000E7FB0C943214E92F0E945A1458F3BA178B
:10294000620773078407950720F079F4A6F50C94C5
:102950007C140EF4E0950B2EBA2FA02D0B01B901BB
:1029600090010C01CA01A0011124FF27591B99F005
:10297000593F50F4503E68F11A16F040A22F232F11
:10298000342F4427585FF3CF469537952795A79561
:10299000F0405395C9F77EF41F16BA0B620B730B08
:1029A000840BBAF09150A1F0FF0FBB1F661F771F79
:1029B000881FC2F70EC0BA0F621F731F841F48F42E
:1029C000879577956795B795F7959E3F08F0B0CFB7
:1029D0009395880F08F09927EE0F9795879508959E
:1029E0000E9404150C9449140E94421458F00E944D
:1029F0003B1440F029F45F3F29F00C94321451113C
:102A00000C947D140C9438140E945A1468F3992382
:102A1000B1F3552391F3951B550BBB27AA276217DA
:102A20007307840738F09F5F5F4F220F331F441FE7
:102A3000AA1FA9F335D00E2E3AF0E0E832D091501B
:102A40005040E695001CCAF72BD0FE2F29D0660F08
:102A5000771F881FBB1F261737074807AB07B0E84B
:102A600009F0BB0B802DBF01FF2793585F4F3AF051
:102A70009E3F510578F00C9432140C947D145F3F06
:102A8000E4F3983ED4F3869577956795B795F795D7
:102A90009F5FC9F7880F911D9695879597F90895BF
:102AA000E1E0660F771F881FBB1F6217730784075B
:102AB000BA0720F0621B730B840BBA0BEE1F88F76A
:102AC000E09508950E9469156894B1110C947D14E5
:102AD00008950E94621488F09F5798F0B92F9927A3
:102AE000B751B0F0E1F0660F771F881F991F1AF0F9
:102AF000BA95C9F714C0B13091F00E947C14B1E0CE
:102B000008950C947C14672F782F8827B85F39F0CC
:102B1000B93FCCF3869577956795B395D9F73EF491
:102B200090958095709561957F4F8F4F9F4F089539
:102B30000E94911308F48FEF0895052E97FB1EF461
:102B400000940E94B41557FD07D00E94C41507FCDD
:102B500003D04EF40C94B4155095409530952195C2
:102B60003F4F4F4F5F4F08959095809570956195B9
:102B70007F4F8F4F9F4F0895EE0FFF1F881F8BBF12
:102B80000790F691E02D1994A1E21A2EAA1BBB1B07
:102B9000FD010DC0AA1FBB1FEE1FFF1FA217B30729
:102BA000E407F50720F0A21BB30BE40BF50B661F3F
:102BB000771F881F991F1A9469F760957095809503
:102BC00090959B01AC01BD01CF0108950F931F9318
:102BD000CF93DF938230910510F482E090E0E09192
:102BE000C004F091C10430E020E0B0E0A0E03097F4
:102BF00099F42115310509F44AC0281B390B2430FA
:102C00003105D8F58A819B816115710589F1FB0138
:102C100093838283FE0111C040815181028113811F
:102C200048175907E0F04817590799F4109761F0D1
:102C300012960C93129713961C933296CF01DF9144
:102C4000CF911F910F9108950093C0041093C10478
:102C5000F4CF2115310551F04217530738F0A9017F
:102C6000DB019A01BD01DF01F801C1CFEF01F9CF0E
:102C70009093C1048093C004CDCFFE01E20FF31FF7
:102C8000819391932250310939832883D7CF2091A2
:102C9000BE043091BF04232B41F4209108023091EF
:102CA00009023093BF042093BE04209106023091A4
:102CB00007022115310541F42DB73EB740910A02B4
:102CC00050910B02241B350BE091BE04F091BF0420
:102CD000E217F307A0F42E1B3F0B2817390778F0F3
:102CE000AC014E5F5F4F2417350748F04E0F5F1F52
:102CF0005093BF044093BE04819391939FCFF0E023
:102D0000E0E09CCFCF93DF930097E9F0FC0132978E
:102D100013821282A091C004B091C104ED0130E091
:102D200020E01097A1F420813181820F931F209120
:102D3000BE043091BF042817390709F061C0F09331
:102D4000BF04E093BE04DF91CF910895EA01CE174E
:102D5000DF07E8F54A815B819E0141155105B1F716
:102D6000E901FB83EA8349915991C40FD51FEC1700
:102D7000FD0761F4808191810296840F951FE9011E
:102D800099838883828193819B838A83F0E0E0E04A
:102D900012968D919C9113970097B9F52D913C91C6
:102DA0001197CD010296820F931F2091BE0430919E
:102DB000BF042817390739F6309751F51092C1042E
:102DC0001092C004B093BF04A093BE04BCCFD383C1
:102DD000C28340815181840F951FC817D90761F4C0
:102DE0004E5F5F4F88819981480F591F51834083FF
:102DF0008A819B81938382832115310509F0B0CFAD
:102E0000F093C104E093C0049ECFFD01DC01C0CF6C
:102E100013821282D7CF4F925F926F927F928F92DE
:102E20009F92AF92BF92CF92DF92EF92FF920F9359
:102E30001F93CF93DF938C01009799F4CB01DF911F
:102E4000CF911F910F91FF90EF90DF90CF90BF90A7
:102E5000AF909F908F907F906F905F904F900C9469
:102E6000E615FC01E60FF71F9C0122503109E2171D
:102E7000F30708F4AEC0D901CD91DC911197C617C4
:102E8000D70720F1C530D10578F0CE010497861719
:102E9000970750F0C61BD70B2297C193D1936D9320
:102EA0007C93CF010E948216C801DF91CF911F91C0
:102EB0000F91FF90EF90DF90CF90BF90AF909F90D9
:102EC0008F907F906F905F904F9008955B01AC1A48
:102ED000BD0A4C018C0E9D1EA091C004B091C1048E
:102EE000512C412CF12CE12C109731F58091BE042E
:102EF0009091BF048815990509F05CC046165706E5
:102F000008F058C08091060290910702009741F4A2
:102F10008DB79EB740910A0250910B02841B950B0E
:102F2000E817F90708F055C0F093BF04E093BE041A
:102F3000F90171836083B8CF8D919C91119712969E
:102F40006C90129713967C901397A815B90559F5B4
:102F50006C0142E0C40ED11CCA14DB0420F1AC01A8
:102F60004A195B09DA011296159780F06282738222
:102F700051834083D9016D937C93E114F10471F086
:102F8000D7011396FC93EE9312978ECF22968C0F57
:102F90009D1FF90191838083F301EFCFF093C1046A
:102FA000E093C00481CF4816590608F42C017D0136
:102FB000D3019ACFCB010E94E6157C01009749F01E
:102FC000AE01B8010E94EC17C8010E948216870169
:102FD0006BCF10E000E068CFFB01DC0102C0019084
:102FE0000D9241505040D8F70895FB01DC018D91BE
:102FF000019080190110D9F3990B0895FB01DC01B0
:1030000001900D920020E1F708950F931F93CF9345
:10301000DF93CDB7DEB72E970FB6F894DEBF0FBEA5
:10302000CDBF0E891F8986E08C831A8309838FEFB9
:103030009FE79E838D83AE01465E5F4F688D798DDD
:10304000CE0101960E9435182F813885020F131F7B
:10305000F80110822E960FB6F894DEBF0FBECDBFDA
:10306000DF91CF911F910F9108952F923F924F9230
:103070005F926F927F928F929F92AF92BF92CF9208
:10308000DF92EF92FF920F931F93CF93DF9300D0C5
:1030900000D000D01F921F92CDB7DEB77C013B015C
:1030A0008A01FC0117821682838181FFDDC1CE0176
:1030B00001965C01F7019381F30193FD859193FFE4
:1030C00081913F01882309F453C1853239F493FD7E
:1030D000859193FF81913F01853229F4B70190E0FA
:1030E0000E944D1AE7CF912C212C312CFFE1F315D2
:1030F00038F08B3211F190F4803209F1833229F1EA
:1031000037FC3CC020ED280F2A3050F536FE20C099
:103110008AE0989E200D1124922E06C08D3291F0E7
:10312000803371F7689430F8F30193FD859193FF34
:1031300081913F018111DACF21C0689431F8689400
:1031400032F8F2CF689433F8EFCF689434F8ECCFCC
:10315000EAE02E9E200D1124222E689435F8E4CF4B
:103160008E3229F436FC04C1689436F8DDCF8C36F3
:1031700019F4689437F8D8CF8836B1F2982F9F7D2C
:1031800095549330E0F08336A1F18337C1F1833554
:1031900009F063C02801F2E04F0E511CF801C08015
:1031A000D180692D70E036FC02C06FEF7FEFC60161
:1031B0000E94371A4C01689437F882010AC00C5FEC
:1031C0001F4FFFE3F98388248394912C6501E894D1
:1031D00037F833FE2DC0522C8114910471F555201F
:1031E00009F468CFB70180E290E00E944D1A5A942A
:1031F000F6CFF801808189830E5F1F4FE4CF28014D
:10320000F2E04F0E511CF801C080D180692D70E0B2
:1032100036FC02C06FEF7FEFC6010E94421A4C01DC
:103220008201D5CFB70180E290E00E944D1A2A9426
:103230002814190409F0B0F7CECFF60137FC8591B8
:1032400037FE81916F01B70190E00E944D1A511035
:103250005A94F1E08F1A9108BFCF843619F089365D
:1032600009F077C0F80137FE6BC0608171818281FF
:1032700093810C5F1F4FF32DFF763F2E97FF09C000
:1032800090958095709561957F4F8F4F9F4F689473
:1032900037F82AE030E0A5010E947D1AC82ECA182E
:1032A0008C2C432C36FE0CC0E89440F8C91440F432
:1032B00034FE05C032FC03C0F32DFE7E4F2E892C58
:1032C00044FEAAC0FE01EC0DF11D8081803309F09F
:1032D0009CC0242D297E422E842D8870582E43FCBC
:1032E000AAC040FEA4C09C2C821418F42C0C922C72
:1032F000981844FEA6C0B70180E390E00E944D1AE2
:1033000042FE09C088E790E041FE02C088E590E0F7
:10331000B7010E944D1AC91408F49FC0CA94D12C59
:103320009FEFC91AD90ACA0CDB1CF60182916F0102
:10333000B70190E00E944D1AAC14BD04B1F74FCF15
:1033400060817181072E000C880B990B0E5F1F4F57
:1033500092CFD32CE894D4F82AE030E08537E1F11D
:10336000232D297FD22E8F36A9F1F0F4883551F123
:10337000F701868197812B960FB6F894DEBF0FBEBA
:10338000CDBFDF91CF911F910F91FF90EF90DF9014
:10339000CF90BF90AF909F908F907F906F905F90F5
:1033A0004F903F902F900895803749F0883701F76C
:1033B000D4FE02C06894D2F820E130E00DC06894D9
:1033C000D4F8F6CF34FE03C0822F8660D82E20E1D9
:1033D00032E002C028E030E0F801D7FE0FC0608183
:1033E0007181828193810C5F1F4FA5010E947D1A1C
:1033F000C82ECA183D2CE89437F852CF60817181ED
:1034000090E080E00E5F1F4FF0CF42FC02C083943B
:1034100063CF8394839460CF842D867809F45CCF46
:10342000F6CFB70180E290E00E944D1A8394821497
:10343000C0F3512C5ECF522C5818821408F459CF87
:10344000F8CF842D867809F466CF8BE241FE80E2C6
:1034500047FC8DE2B70190E05CCFB70180E390E0DC
:103460000E944D1A9A9457CF8FEF9FEF84CFFC01A3
:103470000590615070400110D8F7809590958E0F9F
:103480009F1F0895FC016150704001900110D8F712
:10349000809590958E0F9F1F08950F931F93CF9344
:1034A000DF93182F092FEB018B8181FD09C01FEFDE
:1034B0000FEF812F902FDF91CF911F910F910895E2
:1034C00082FF14C02E813F818C819D81281739078E
:1034D0003CF4E881F981CF010196998388831083B8
:1034E0008E819F8101969F838E83E3CFE885F98546
:1034F000812F1995892BA1F3DACFFA01AA27283059
:1035000051F1203181F1E8946F936E7F6E5F7F4FB0
:103510008F4F9F4FAF4FB1E03ED0B4E03CD0670F2C
:10352000781F891F9A1FA11D680F791F8A1F911D7F
:10353000A11D6A0F711D811D911DA11D20D009F4CF
:1035400068943F912AE0269F11243019305D319311
:10355000DEF6CF010895462F4770405D4193B3E0FA
:103560000FD0C9F7F6CF462F4F70405D4A3318F0A1
:10357000495D31FD4052419302D0A9F7EACFB4E052
:10358000A6959795879577956795BA95C9F700970A
:103590006105710508959B01AC010A2E06945795AB
:1035A000479537952795BA95C9F7620F731F841F02
:1035B000951FA01D089511E0C3E4D1E000E006C00E
:1035C000802FFE010E94BC152196011DC434D10735
:1035D00080E00807A9F7F894FFCFE61582160B17CD
:1035E0000000C204800020002100220023002400EB
:1035F0002500450044004300420000000000240371
:103600008E02BB027103EC02CA02DE02000000005F
:10361000020CC70432057525303478002222006E72
:10362000756C6C0066616C7365007472756500740E
:103630000074310074320074330074340074350047
:0E36400074360074370070006B000D0A000035
:020000040003F7
:10E000000D9489F10D94B2F10D94B2F10D94B2F129
:10E010000D94B2F10D94B2F10D94B2F10D94B2F1F0
:10E020000D94B2F10D94B2F10D94B2F10D94B2F1E0
:10E030000D94B2F10D94B2F10D94B2F10D94B2F1D0
:10E040000D94B2F10D94B2F10D94B2F10D94B2F1C0
:10E050000D94B2F10D94B2F10D94B2F10D94B2F1B0
:10E060000D94B2F10D94B2F10D94B2F10D94B2F1A0
:10E070000D94B2F10D94B2F10D94B2F10D94B2F190
:10E080000D94B2F10D94B2F10D94B2F10D94B2F180
:10E090000D94B2F10D94B2F10D94B2F10D94B2F170
:10E0A0000D94B2F10D94B2F10D94B2F10D94B2F160
:10E0B0000D94B2F10D94B2F10D94B2F10D94B2F150
:10E0C0000D94B2F10D94B2F10D94B2F10D94B2F140
:10E0D0000D94B2F10D94B2F10D94B2F10D94B2F130
:10E0E0000D94B2F141546D656761323536300041AF
:10E0F000726475696E6F206578706C6F72657220DE
:10E1000073746B3530305632206279204D4C530099
:10E11000426F6F746C6F616465723E004875683F52
:10E1200000436F6D70696C6564206F6E203D200048
:10E130004350552054797065202020203D20005FF9
:10E140005F4156525F415243485F5F3D2000415658
:10E1500052204C696243205665723D20004743437C
:10E160002056657273696F6E203D20004350552024
:10E1700049442020202020203D20004C6F7720663D
:10E18000757365202020203D20004869676820665F
:10E190007573652020203D200045787420667573D6
:10E1A00065202020203D20004C6F636B2066757336
:10E1B000652020203D20004D617220203720323024
:10E1C000313300312E362E3800342E332E350056A2
:10E1D00023202020414444522020206F7020636F70
:10E1E00064652020202020696E73747275637469E1
:10E1F0006F6E2061646472202020496E74657272B3
:10E20000757074006E6F20766563746F7200726A49
:10E210006D702020006A6D70200057686174207056
:10E220006F72743A00506F7274206E6F7420737541
:10E2300070706F72746564004D7573742062652030
:10E2400061206C6574746572002000577269747483
:10E25000696E672045450052656164696E672045B7
:10E26000450045452065727220636E743D00504F35
:10E27000525400303D5A65726F2061646472003FF1
:10E280003D43505520737461747300403D454550C3
:10E29000524F4D207465737400423D426C696E6B41
:10E2A000204C454400453D44756D70204545505215
:10E2B0004F4D00463D44756D7020464C415348001B
:10E2C000483D48656C70004C3D4C69737420492F83
:10E2D0004F20506F72747300513D51756974005234
:10E2E0003D44756D702052414D00563D73686F7707
:10E2F00020696E7465727275707420566563746FF0
:10E30000727300593D506F727420626C696E6B00BD
:10E310002A0011241FBECFEFD1E2DEBFCDBF01E046
:10E320000CBF12E0A0E0B2E0EEE1FDEF03E00BBFB6
:10E3300002C007900D92A030B107D9F712E0A0E01B
:10E34000B2E001C01D92AE30B107E1F70F9460F367
:10E350000D948DFE01E20EBF0FEF0DBF11241FBE05
:10E360000D9460F30D9400F020E030E040ED57E0B4
:10E3700005C0FA013197F1F72F5F3F4F2817390792
:10E38000C0F308959C01260F311DC901A0E0B0E043
:10E390002F5F3F4FABBFFC018791882361F08093D3
:10E3A000C6008091C00086FFFCCF8091C0008064D1
:10E3B0008093C000EACF08958DE08093C6008091DD
:10E3C000C00086FFFCCF8091C00080648093C000B5
:10E3D0008AE08093C6008091C00086FFFCCF8091C8
:10E3E000C00080648093C00008950F94C2F10F9420
:10E3F000DCF10895FC019081992359F09093C600B7
:10E400008091C00086FFFCCF8091C0008064809323
:10E41000C0003196992379F70895282F982F929567
:10E420009F70892F805D8A3308F0895F8093C600D2
:10E430008091C00086FFFCCF8091C00080648093F3
:10E44000C000822F8F70982F905D9A3308F0995FEB
:10E450009093C6008091C00086FFFCCF8091C000E1
:10E4600080648093C00008959C01FB01853691056E
:10E470001CF46330710594F0C90164E670E00F94F8
:10E480002EFE605D7F4F6093C6008091C00086FFC6
:10E49000FCCF8091C00080648093C0002B30310598
:10E4A00014F43297B4F0C90164E670E00F942EFEC4
:10E4B0006AE070E00F942EFE605D7F4F6093C600AF
:10E4C0008091C00086FFFCCF8091C0008064809363
:10E4D000C000C9016AE070E00F942EFEC0968093E0
:10E4E000C6008091C00086FFFCCF8091C000806490
:10E4F0008093C00008951F93182F8EE692EE60E07F
:10E500000F94C2F11093C6008091C00086FFFCCF2B
:10E510008091C00080648093C0000F94DCF11F9153
:10E5200008952F923F924F925F926F927F928F92B7
:10E530009F92AF92BF92CF92DF92EF92FF920F9392
:10E540001F93DF93CF93CDB7DEB762970FB6F894E2
:10E55000DEBF0FBECDBF382E622ECA01DB015C01CB
:10E560006D01772420E2222E2E010894411C511CBB
:10E570008BC081E0A81680E0B80681E0C80680E084
:10E58000D80628F0C601AA27BB270F940DF2BB2797
:10E59000AD2D9C2D8B2D0F940DF28A2D0F940DF225
:10E5A0002092C6008091C00086FFFCCF8091C00001
:10E5B00080648093C0009DE29093C6008091C0006B
:10E5C00086FFFCCF8091C00080648093C0002092C1
:10E5D000C6008091C00086FFFCCF8091C00080649F
:10E5E0008093C00019828601750188249924A1E0D6
:10E5F0003A1651F03A1620F0B2E03B1661F409C029
:10E600000BBFF701779007C0C7010F9477FE782EF4
:10E6100002C0F7017080872D0F940DF22092C60082
:10E620008091C00086FFFCCF8091C0008064809301
:10E63000C000872D8052F401EF70F0708F3520F408
:10E64000E40DF51D708204C0E40DF51D8EE280839B
:10E650000894E11CF11C011D111D0894811C911CE2
:10E6600090E18916910409F0C2CF80E190E0A0E02A
:10E67000B0E0A80EB91ECA1EDB1E198AC2010F9493
:10E68000FAF10F94DCF16A94662009F072CF629679
:10E690000FB6F894DEBF0FBECDBFCF91DF911F91B3
:10E6A0000F91FF90EF90DF90CF90BF90AF909F9031
:10E6B0008F907F906F905F904F903F902F90089534
:10E6C0002F923F924F925F926F927F928F929F9282
:10E6D000AF92BF92CF92DF92EF92FF920F931F9370
:10E6E000DF93CF93CDB7DEB7CD53D1400FB6F894BB
:10E6F000DEBF0FBECDBF01E20EBF0FEF0DBF94B75F
:10E70000F894A89514BE80916000886180936000A1
:10E7100010926000789493FF05C0E0910002F091A0
:10E7200001021995279A2F9A8091C00082608093E8
:10E73000C00080E18093C40088E18093C1000000A4
:10E74000EE24FF24870144E0A42EB12CCC24DD2448
:10E7500024C0C5010197F1F70894E11CF11C011DCB
:10E76000111D21E2E2162EE4F20620E0020720E06D
:10E77000120718F031E0C32ED12CC801B70127ECE5
:10E780003BE140E050E00F9441FE611571058105C9
:10E79000910519F485B1805885B98091C00087FD35
:10E7A00003C0C114D104A9F2A6014F5F5F4FC25E3E
:10E7B000DE4F59834883CE51D140C25EDE4F8881FF
:10E7C0009981CE51D140019711F00D9410FEC05D9A
:10E7D000DE4F19821882C053D14060E0C15DDE4F28
:10E7E0001882CF52D14088249924C35DDE4F19820C
:10E7F0001882CD52D140C05EDE4F188219821A8233
:10E800001B82C052D140CE5CDE4F188219821A8220
:10E810001B82C253D140EE24FF2487010BBFF701B6
:10E8200007911691C45CDE4F19830883CC53D14005
:10E830000D940BFEC25EDE4F28813981CE51D1404E
:10E840002130310509F52091C600C25EDE4F1982E4
:10E850001882CE51D14022C02F5F3F4F4F4F5F4FA4
:10E86000213082E138078AE7480780E0580780F0C6
:10E87000C45CDE4FE881F981CC53D140EF5FFF4F9C
:10E8800019F0EE27FF27099420E030E040E050E047
:10E890008091C00087FFE0CF2091C600C35DDE4FAE
:10E8A00048815981CD52D1404F5F5F4FC35DDE4FEC
:10E8B00059834883CD52D140213209F063C64A3092
:10E8C000510508F05FC60894811C911C53E0851621
:10E8D000910409F059C600E010E018C081E280936D
:10E8E000C6008091C00086FFFCCF8091C00080648C
:10E8F0008093C0002F5F3F4F2931310579F70F9486
:10E90000DCF10F5F1F4F0530110519F020E030E0FA
:10E91000E5CF10920A0210920B0210920C02109294
:10E920000D02109206021092070210920802109235
:10E930000902109202021092030210920402109235
:10E9400005028FEE90EE60E00F94F5F180E191EE1C
:10E9500060E00F94C2F18091C00087FFFCCF9091DE
:10E96000C600903608F09F759032B8F09093C600BC
:10E970008091C00086FFFCCF8091C00080648093AE
:10E98000C000A0E2A093C6008091C00086FFFCCF2B
:10E990008091C00080648093C000983409F4D7C18E
:10E9A0009934B8F4923409F459C1933458F490333B
:10E9B00019F1903308F4E3C59F33A1F1903409F0C5
:10E9C000DEC5BDC0953409F470C1963409F0D7C5D1
:10E9D00098C1923509F42BC2933538F49C3409F46C
:10E9E000F5C1913509F0CBC518C2963509F445C279
:10E9F000993509F0C4C567C483E792EE62E00F94CD
:10EA0000F5F110920602109207021092080210927D
:10EA1000090210920A0210920B0210920C0210923C
:10EA20000D0213C18FE792EE62E00F94F5F18FEEC5
:10EA300090EE60E00F94F5F181E291EE60E00F94CA
:10EA4000C2F187EB91EE60E00F94F5F180E391EE77
:10EA500060E00F94C2F184EE90EE60E00F94F5F167
:10EA60008FE391EE60E00F94C2F186E090E061E008
:10EA700070E00F9434F20F94DCF18DE591EE60E0DC
:10EA80000F94C2F189EC91EE60E00F94F5F18EE401
:10EA900091EE60E00F94C2F183EC91EE60E00F9490
:10EAA000F5F18CE691EE60E00F94C2F18EE10F94E7
:10EAB0000DF288E90F940DF281E00F940DF20F949E
:10EAC000DCF18BE791EE60E00F94C2F119E0E0E039
:10EAD000F0E010935700E4918E2F0F940DF20F94F5
:10EAE000DCF18AE891EE60E00F94C2F1E3E0F0E03F
:10EAF00010935700E4918E2F0F940DF20F94DCF1D8
:10EB000089E991EE60E00F94C2F1E2E0F0E0109349
:10EB10005700E4918E2F0F940DF20F94DCF188EAE8
:10EB200091EE60E00F94C2F1E1E0F0E01093570045
:10EB30001491812F0F940DF20F94DCF107CF8BE825
:10EB400092EE62E00F94F5F18BE492EE60E00F94A8
:10EB5000F5F10F94DCF100E010E019C0C8016F2D51
:10EB60000F947FFEFF2031F489E492EE60E00F9471
:10EB7000C2F10BC0F092C6008091C00086FFFCCFAE
:10EB80008091C00080648093C0000F5F1F4FC80158
:10EB900081519F41A0E0B0E0ABBFFC01F790BAE229
:10EBA000FB1621F0E2E000301E07C1F60F94DCF105
:10EBB0000F94DCF187E592EE60E00F94F5F10F948D
:10EBC000DCF1CC24DD2400E010E01EC0C8010F946D
:10EBD00077FEF82E882331F489E492EE60E00F94FA
:10EBE000C2F10BC08093C6008091C00086FFFCCFAD
:10EBF0008091C00080648093C000FE1419F00894D6
:10EC0000C11CD11C0F5F1F4FC80181519F41A0E063
:10EC1000B0E0ABBFFC01E790FAE2EF1621F022E092
:10EC20000030120799F60F94DCF10F94DCF182E6C4
:10EC300092EE60E00F94C2F1C60161E070E00F94C3
:10EC400034F20F94DCF10F94DCF110920202109276
:10EC50000302109204021092050278CE89E992EE26
:10EC600062E00F94F5F1279A2F9A16C02F9880E052
:10EC700090E0E0EDF7E03197F1F7019684369105E9
:10EC8000C1F72F9A80E090E0E0EDF7E03197F1F7DF
:10EC9000019684369105C1F78091C00087FFE6CFC9
:10ECA0008091C00087FFFCCF64C485EA92EE62E0E9
:10ECB0000F94F5F140910202509103026091040219
:10ECC0007091050281E020E10F9491F2809102029F
:10ECD00090910302A0910402B091050280509F4FD1
:10ECE000AF4FBF4F8093020290930302A0930402A0
:10ECF000B093050280509041A040B04008F426CE69
:10ED0000A4CF83EB92EE62E00F94F5F140910602FE
:10ED100050910702609108027091090280E020E1A1
:10ED20000F9491F28091060290910702A09108023F
:10ED3000B091090280509F4FAF4FBF4F80930602A2
:10ED400090930702A0930802B0930902FFCD80ECD4
:10ED500092EE62E00F94F5F183E792EE60E00F949B
:10ED6000F5F18FE792EE60E00F94F5F18BE892EE0B
:10ED700060E00F94F5F189E992EE60E00F94F5F10F
:10ED800085EA92EE60E00F94F5F183EB92EE60E09D
:10ED90000F94F5F180EC92EE60E00F94F5F187ECC2
:10EDA00092EE60E00F94F5F188ED92EE60E00F9442
:10EDB000F5F18FED92EE60E00F94F5F18AEE92EEB0
:10EDC00060E00F94F5F183E093EEBDCD87EC92EE19
:10EDD00062E00F94F5F181E40F947BF282E40F94EA
:10EDE0007BF283E40F947BF284E40F947BF285E45E
:10EDF0000F947BF286E40F947BF287E40F947BF20E
:10EE000088E40F947BF28AE40F947BF28BE40F94F6
:10EE10007BF28CE40F947BF299CD88ED92EE62E068
:10EE20000F94F5F1772473948824992409C48FED05
:10EE300092EE62E00F94F5F140910A0250910B02BC
:10EE400060910C0270910D0282E020E10F9491F22A
:10EE500080910A0290910B02A0910C02B0910D02D8
:10EE600080509F4FAF4FBF4F80930A0290930B0289
:10EE7000A0930C02B0930D0269CD8AEE92EE62E08F
:10EE80000F94F5F184EE90EE60E00F94F5F18FECC5
:10EE900091EE60E00F94F5F1662477244301CC5D98
:10EEA000DE4F19821882C452D140D401C301B695F5
:10EEB000A79597958795CA5DDE4F88839983AA8326
:10EEC000BB83C652D140CC5DDE4FA881B981C4520C
:10EED000D1401196CC5DDE4FB983A883C452D14096
:10EEE000CD0162E070E00F9434F2B0E2B093C6005E
:10EEF0008091C00086FFFCCF8091C0008064809329
:10EF0000C000EDE2E093C6008091C00086FFFCCF18
:10EF10008091C00080648093C000F0E2F093C6004E
:10EF20008091C00086FFFCCF8091C00080648093F8
:10EF3000C000CA5DDE4FE880F9800A811B81C6529D
:10EF4000D140BB27A12F902F8F2D0F940DF2CA5DBA
:10EF5000DE4F8881C652D1400F940DF2B0E2FB2EF5
:10EF6000F092C6008091C00086FFFCCF8091C00067
:10EF700080648093C0000DE30093C6008091C000C0
:10EF800086FFFCCF8091C00080648093C00010E2B7
:10EF90001093C6008091C00086FFFCCF8091C00016
:10EFA00080648093C0008BBEF3012791C65DDE4F65
:10EFB0002883CA52D140A22EBB24CC24DD2408943D
:10EFC000611C711C811C911C8BBEF3018791282E42
:10EFD0003324442455240894611C711C811C911C09
:10EFE0008BBEF3013791C55DDE4F3883CB52D140E4
:10EFF0000894611C711C811C911C8BBEF30147910C
:10F00000C45DDE4F4883CC52D140ADEFEA2EAFEF66
:10F01000FA2EAFEF0A2FAFEF1A2F6E0C7F1C801E57
:10F02000911E142D032DF22CEE24EA0CFB1C0C1D5A
:10F030001D1D0F940DF220E22093C6008091C000A8
:10F0400086FFFCCF8091C00080648093C000C65DC5
:10F05000DE4F8881CA52D1400F940DF230E23093D6
:10F06000C6008091C00086FFFCCF8091C000806404
:10F070008093C000C45DDE4F8881CC52D1400F9494
:10F080000DF240E24093C6008091C00086FFFCCFA5
:10F090008091C00080648093C000C55DDE4F888190
:10F0A000CB52D1400F940DF250E25093C6008091A4
:10F0B000C00086FFFCCF8091C00080648093C000B8
:10F0C0008FEFE8168FEFF80680E0080780E018075A
:10F0D00031F484E092EE60E00F94C2F1DFC0D80119
:10F0E000C7018070907CA070B0708050904CA040A0
:10F0F000B040D1F52FEF3FE340E050E0E222F322B1
:10F1000004231523CA5DDE4FA880B980CA80DB8046
:10F11000C652D140AE0CBF1CC01ED11EAA0CBB1CD7
:10F12000CC1CDD1C8EE092EE60E00F94C2F1BB2798
:10F13000A12F902F8F2D0F940DF28E2D0F940DF285
:10F1400030E23093C6008091C00086FFFCCF8091F2
:10F15000C00080648093C0004EE34093C60080915D
:10F16000C00086FFFCCF87C08EE09EEFA0E0B0E03D
:10F17000E822F9220A231B239CE0E91694E9F90608
:10F1800090E0090790E0190709F088C0C45DDE4FE0
:10F19000A881CC52D140EA2EFF2400E010E0102FCD
:10F1A0000F2DFE2CEE24C55DDE4FB881CB52D14031
:10F1B000EB0EF11C011D111DD601C501817090706F
:10F1C000A070B070DC0199278827E80EF91E0A1F8D
:10F1D0001B1F20EF30E040E050E0A222B322C42207
:10F1E000D52241E1AA0CBB1CCC1CDD1C4A95D1F7F1
:10F1F000EA0CFB1C0C1D1D1D81E090E0A0E0B0E0BE
:10F20000282239224A225B2235E1220C331C441C7D
:10F21000551C3A95D1F7E20CF31C041D151D57013E
:10F220006801AA0CBB1CCC1CDD1C85E192EE60E0E1
:10F230000F94C2F1C801AA27BB270F940DF2BB2778
:10F24000A12F902F8F2D0F940DF28E2D0F940DF274
:10F2500090E29093C6008091C00086FFFCCF809121
:10F26000C00080648093C000AEE3A093C60080918C
:10F27000C00086FFFCCF8091C00080648093C000F6
:10F28000C601AA27BB270F940DF2BB27AD2D9C2DDD
:10F290008B2D0F940DF28A2D0F940DF20F94DCF14B
:10F2A000CC5DDE4FE881F981C452D140F99709F471
:10F2B0004DCBF4E0EF2EF12C012D112D6E0C7F1CA7
:10F2C000801E911EF2CD83E093EE62E00F94F5F183
:10F2D0008AE192EE60E00F94C2F18091C00087FF56
:10F2E000FCCF1091C6001F751093C6008091C0001E
:10F2F00086FFFCCF8091C00080648093C0000F9493
:10F30000DCF1812F81548A3108F036C1163409F4BA
:10F3100095C0173490F4133409F44EC0143430F40B
:10F320001134F1F0123409F01DC130C0143409F465
:10F3300059C0153409F016C16BC01A3409F4C4C0A1
:10F340001B3438F4173409F48FC0183409F00AC19B
:10F35000A1C01B3409F4D2C01C3409F003C1E8C0B9
:10F360008FEF81B90DC082B1809582B980E090E0C5
:10F37000E0EDF7E03197F1F70196883C9105C1F790
:10F380008091C00087FFEFCF12B8EFC08FEF84B934
:10F390000DC085B1809585B980E090E0E0EDF7E0A3
:10F3A0003197F1F70196883C9105C1F78091C00033
:10F3B00087FFEFCF15B8D9C08FEF87B90DC088B1DF
:10F3C000809588B980E090E0E0EDF7E03197F1F7C3
:10F3D0000196883C9105C1F78091C00087FFEFCF6F
:10F3E00018B8C3C08FEF8AB90DC08BB180958BB9A7
:10F3F00080E090E0E0EDF7E03197F1F70196883C8E
:10F400009105C1F78091C00087FFEFCF1BB8ADC059
:10F410008FEF8DB90DC08EB180958EB980E090E0F0
:10F42000E0EDF7E03197F1F70196883C9105C1F7DF
:10F430008091C00087FFEFCF1EB897C08FEF80BBD1
:10F440000DC081B3809581BB80E090E0E0EDF7E0F6
:10F450003197F1F70196883C9105C1F78091C00082
:10F4600087FFEFCF11BA81C08FEF83BB0DC084B38C
:10F47000809584BB80E090E0E0EDF7E03197F1F714
:10F480000196883C9105C1F78091C00087FFEFCFBE
:10F4900014BA6BC08FEF809301010FC080910201FD
:10F4A00080958093020180E090E0E0EDF7E03197F5
:10F4B000F1F70196883C9105C1F78091C00087FF64
:10F4C000EDCF1092020151C08FEF809304010FC065
:10F4D0008091050180958093050180E090E0E0ED4A
:10F4E000F7E03197F1F70196883C9105C1F78091DB
:10F4F000C00087FFEDCF1092050137C08FEF8093DA
:10F5000007010FC08091080180958093080180E079
:10F5100090E0E0EDF7E03197F1F70196883C910536
:10F52000C1F78091C00087FFEDCF109208011DC088
:10F530008FEF80930A010FC080910B01809580931B
:10F540000B0180E090E0E0EDF7E03197F1F70196F4
:10F55000883C9105C1F78091C00087FFEDCF1092E4
:10F560000B0103C085E292EEEEC98091C00087FFD7
:10F57000FCCF8091C600EAC988E392EEE4C98CE131
:10F5800091EEE1C988249924933011F1943028F444
:10F59000913089F09230B8F408C0953061F195301F
:10F5A000F0F0963009F048C043C02B3109F042C951
:10F5B00091E06BE13FC96227C15DDE4F2883CF52E6
:10F5C000D14092E037C9B22FA0E0622793E032C960
:10F5D000822F90E0A82BB92B622794E02BC92E3004
:10F5E00009F039C3622795E0C05DDE4F19821882A9
:10F5F000C053D1401FC9E1E0F0E0EC0FFD1FC05D3A
:10F60000DE4F08811981C053D140E00FF11F2083E4
:10F610000F5F1F4FC05DDE4F19830883C053D14079
:10F6200062270A171B0709F005C9D80196E002C92D
:10F63000261709F010C303C0973009F0FBC87724E0
:10F640009981933109F412C19431C8F4963009F4C8
:10F65000D8C0973050F4923009F406C1933009F4C1
:10F660006DC0913009F059C253C0913109F477C08F
:10F67000923108F0BBC0903109F04FC2F5C098310B
:10F6800009F487C0993150F4953109F4EFC09531F0
:10F6900008F4C6C1963109F040C2C2C19A3109F4DA
:10F6A0006CC09A3108F491C09B3109F45BC09D3164
:10F6B00009F033C29D81903359F48F81882311F46E
:10F6C0009EE11CC0813011F091E018C098E916C08D
:10F6D000892F807591F0903539F4E0E0F0E089E011
:10F6E0008093570094910AC0983539F4E3E0F0E034
:10F6F00089E080935700949101C090E01A821B82A8
:10F700008D818C831D829E831F8227E030E009C299
:10F710001A8288E08B8381E48C8386E58D8382E581
:10F720008E8389E48F8383E5888780E589878FE5E9
:10F730008A8782E38B872BE030E0F3C18A818139AD
:10F7400041F0823941F0803911F48FE005C080E04A
:10F7500003C082E001C08AE01A828B8344C0772410
:10F76000739482C08D81882311F48EE12CC0813086
:10F7700011F081E028C088E926C01A82E1E0F0E0BB
:10F7800089E08093570084918B831C8224E030E0D1
:10F79000C8C18B81803589F48C81883039F4E2E0EE
:10F7A000F0E089E08093570084910DC0E0E0F0E044
:10F7B00089E080935700849106C0E3E0F0E089E09F
:10F7C0008093570084911A82DFCF8D81836C99E0FA
:10F7D000E1E0F0E0082E90935700E89507B600FCB2
:10F7E000FDCF1A821B8223E030E09BC180EC8A832C
:10F7F000CE5CDE4F188219821A821B82C253D1401E
:10F800008EC18A8190E0A0E0B0E0582F44273327D2
:10F8100022278B8190E0A0E0B0E0DC0199278827C7
:10F82000282B392B4A2B5B2B8D8190E0A0E0B0E098
:10F83000282B392B4A2B5B2B8C8190E0A0E0B0E089
:10F84000BA2FA92F982F8827282B392B4A2B5B2BCF
:10F85000220F331F441F551FC05EDE4F288339839C
:10F860004A835B83C052D1401A8259C13A81C95C34
:10F87000DE4F3883C753D140CA5CDE4F1882C6536F
:10F88000D1408B81C82EDD24CA5CDE4F488159816E
:10F89000C653D140C42AD52A933109F082C0CE5C28
:10F8A000DE4F88819981AA81BB81C253D1408050AB
:10F8B000904CA340B04030F583E0CE5CDE4FE88052
:10F8C000F9800A811B81C253D140F70100935B008C
:10F8D00080935700E89507B600FCFDCFCE5CDE4F65
:10F8E000088119812A813B81C253D14000501F4FAA
:10F8F0002F4F3F4FCE5CDE4F088319832A833B8313
:10F90000C253D140C05EDE4F488159816A817B81FC
:10F91000C052D140DE011B9631E08C9111962C91A2
:10F9200011971296C75CDE4F2883C953D140C85C3B
:10F93000DE4F1882C853D14090E0C85CDE4FE881AA
:10F94000F981C853D1408E2B9F2B0C01FA01609393
:10F950005B0030935700E89511244E5F5F4F6F4F67
:10F960007F4F0EEFE02E0FEFF02ECE0CDF1CC114F8
:10F97000D10499F685E0C05EDE4F088119812A81A5
:10F980003B81C052D140F80120935B008093570027
:10F99000E89507B600FCFDCF81E180935700E8951C
:10F9A00035C0C05EDE4F88819981AA81BB81C0527B
:10F9B000D140B695A795979587957C018601ABE0D8
:10F9C000AA2EB12CAC0EBD1E0BC0D5016D915D01F0
:10F9D000C7010F947FFE0894E11CF11C01501040F8
:10F9E0000115110591F7A60160E070E0440F551F65
:10F9F000661F771FC05EDE4FE880F9800A811B8199
:10FA0000C052D1404E0D5F1D601F711F1A82C05E33
:10FA1000DE4F488359836A837B83C052D1407FC0C5
:10FA2000FA80C55CDE4FF882CB53D140C65CDE4F16
:10FA30001882CA53D1408B81C82EDD24C65CDE4FAC
:10FA400008811981CA53D140C02AD12A1A828981DA
:10FA5000BE016D5F7F4F843121F59601C05EDE4FA0
:10FA6000E880F9800A811B81C052D1400BBFF701A9
:10FA700087919691DB018C9311969C936E5F7F4FDB
:10FA8000D801C7010296A11DB11DC05EDE4F88835B
:10FA90009983AA83BB83C052D14022503040F1F6F3
:10FAA00036C0C05EDE4F288139814A815B81C052F9
:10FAB000D1400894C108D108760100E010E0089414
:10FAC000C11CD11C0894E11CF11C011D111DE20E8A
:10FAD000F31E041F151F21BDBB27A52F942F832FB5
:10FAE00082BD2F5F3F4F4F4F5F4FF89A80B5DB01CC
:10FAF0008D93BD012E153F054007510761F7C05E8C
:10FB0000DE4F288339834A835B83C052D1409601FC
:10FB10002D5F3F4FFB01108204C080EC8A8322E0FE
:10FB200030E08BE18093C6008091C00086FFFCCF5F
:10FB30008091C00080648093C000C15DDE4FF88179
:10FB4000CF52D140F093C6008091C00086FFFCCF19
:10FB50008091C00080648093C000432F3093C60022
:10FB60008091C00086FFFCCF8091C00080648093AC
:10FB7000C000922F2093C6008091C00086FFFCCF6A
:10FB80008091C00080648093C0008EE08093C600A6
:10FB90008091C00086FFFCCF8091C000806480937C
:10FBA000C00065E1C15DDE4FE880CF52D1406E25D7
:10FBB00069276427FE01319610C090819093C6009A
:10FBC0008091C00086FFFCCF31968091C000806498
:10FBD0008093C0006927215030402115310569F715
:10FBE0006093C6008091C00086FFFCCF8091C0006A
:10FBF00080648093C00085B1805885B9772081F4F6
:10FC0000C15DDE4F0881CF52D1400F5FC15DDE4F35
:10FC10000883CF52D14090E0A0E0B0E00D941AF4F8
:10FC200027982F9880E090E020ED37E0F901319798
:10FC3000F1F7019684369105C9F700008091C00064
:10FC40008D7F8093C00081E180935700E895EE2777
:10FC5000FF270994FFCF90E00D941AF497FB092E2B
:10FC600007260AD077FD04D02ED006D000201AF443
:10FC7000709561957F4F0895F6F7909581959F4F08
:10FC80000895A1E21A2EAA1BBB1BFD010DC0AA1FDD
:10FC9000BB1FEE1FFF1FA217B307E407F50720F0F5
:10FCA000A21BB30BE40BF50B661F771F881F991F70
:10FCB0001A9469F760957095809590959B01AC01B9
:10FCC000BD01CF010895AA1BBB1B51E107C0AA1FAC
:10FCD000BB1FA617B70710F0A61BB70B881F991FED
:10FCE0005A95A9F780959095BC01CD010895F99991
:10FCF000FECF92BD81BDF89A992780B50895262F31
:10FD0000F999FECF1FBA92BD81BD20BD0FB6F89400
:0EFD1000FA9AF99A0FBE01960895F894FFCF63
:00000001FF
